:020000040000FA
:040000008A11F62F3C
:10076800831203139F170800831203130715080049
:100778008312031386160800831203130717080051
:100788008312031307130800831203138612080049
:10079800831203131F150800FB3083120313C200D2
:1007A80042089F05080064008001840A04060319B2
:1007B80000340406D82B831203131E08C400C50195
:1007C8004408C2004508C300E92B0800831203133C
:1007D8001F141A3083120313C300F830C200C20B6F
:1007E800F32BC30BF32B08008312031387140B306E
:1007F80083120313C4002630C3005D30C200C20B4D
:10080800032CC30B032CC40B032C00000800831219
:1008180003130612063083120313C4001330C300F7
:10082800AD30C200C20B162CC30B162CC40B162CF1
:10083800000008008312031387160630831203137F
:10084800C4001330C300AD30C200C20B292CC30B47
:10085800292CC40B292C0000080083120313061648
:10086800063083120313C4001330C300AD30C20036
:10087800C20B3C2CC30B3C2CC40B3C2C00000800C6
:10088800831203138712063083120313C400133034
:10089800C300AD30C200C20B4F2CC30B4F2CC40B8E
:1008A8004F2C000008008312031387100B308312AB
:1008B8000313C4002630C3005D30C200C20B622C93
:1008C800C30B622CC40B622C0000080083120313B4
:1008D80006171A3083120313C4005E30C3006E304B
:1008E800C200C20B752CC30B752CC40B752C83125C
:1008F8000313061308008312031338083904031D71
:10090800862C872C942C8710871206168A11B823F8
:100918008A11013083120313B8000030B900942CF7
:1009280008008312031387170B3083120313C400C4
:100938002630C3005D30C200C20BA02CC30BA02C14
:10094800C40BA02C00008312031387130800831222
:10095800031386114D3083120313C4001930C300EA
:100968004F30C200C20BB62CC30BB62CC40BB62C2E
:10097800000083120313861508008312031307125D
:10098800063083120313C4001330C300AD30C20015
:10099800C20BCC2CC30BCC2CC40BCC2C0000831268
:1009A800031307160800831203134208C400033018
:1009B8000310C40DFF3E031DDC2C1F08C739440477
:1009C8009F001A3083120313C500F830C400C40B0B
:1009D800EB2CC50BEB2C08008312031307148710AC
:1009E800071187150716871207138713061486142D
:1009F80006158615061686160613B801B901C00134
:100A0800C101BE01BF01BC01BD01BA01BB01B601F4
:100A1800B701B401B501B201B30108008312031391
:100A2800C501C6012E2D063083120313C4001330EE
:100A3800C300AD30C200C20B1F2DC30B1F2DC40B4A
:100A48001F2D0000013083120313C5070318C60ABF
:100A58000030C607003046023C3003194502031C2B
:100A6800362D372D172D382D080083120313C50195
:100A7800C6015A2D8611023083120313C400863032
:100A8800C3009830C200C20B472DC30B472DC40BBF
:100A9800472D4E2D8312031386154508013EC500C8
:100AA80046080318013E003EC6005A2D0030460293
:100AB8000A3003194502031C622D632D3E2D642D57
:100AC8000800003083120313290271300319280229
:100AD800031C6F2D702D732DB201B301732D0030DF
:100AE8002902323003192802031C7B2D7C2D892D05
:100AF800003029027130031928020318842D852D2E
:100B0800892D0130B2000030B300003029023230A4
:100B1800031928020318912D922D972D0230B20047
:100B28000030B300972D0800B62D8A117F248A1152
:100B38008312031306110710CB2D8A117F248A1103
:100B48008312031307100615CB2D8A117F248A11EF
:100B58008312031306150710CB2D06150714CB2D8A
:100B6800CB2DCB2D831203132B08003A0319BD2D6F
:100B7800CB2D2A08003A0319A92D013A0319B12DE2
:100B8800033A0319992D013A0319A12DCB2D080019
:100B980000308312031325026A3003192402031854
:100BA800D62DD72DDB2D0230AA000030AB00003047
:100BB80025026A3003192402031CE32DE42DF12DCC
:100BC800003025028830031924020318EC2DED2D7E
:100BD800F12D0330AA000030AB0000302502883028
:100BE80003192402031CF92DFA2D062E00302502C4
:100BF800BF30031924020318022E032E062EAA0161
:100C0800AB01062E00302502BF3003192402031C55
:100C18000E2E0F2E1D2E013025020030031924023E
:100C28000318172E182E1D2E0130AA000030AB0015
:100C38001D2E080083120313C801C901662E8A11EC
:100C4800EA238A11831203134908C3004808C20023
:100C58008A11D7248A11831203131F19342E352EB3
:100C6800452E8A11CC238A11452E452E1A3083121F
:100C78000313C700F830C600C60B402EC70B402E22
:100C8800452E831203131F194A2E4B2E3A2E4C2E33
:100C98008A11DF238A11831203134808C600460706
:100CA800203E8400420883138000840A43088000A1
:100CB8000130C8070318C90A0030C9078A11D023B0
:100CC8008A11662E00308312031349020530031976
:100CD8004802031C702E712E232E722E0800043039
:100CE80083120313C2000030C3002D30C40000304B
:100CF800C50000302702713003192602031C852E17
:100D0800862EAD2E023030063104031D8C2E8D2E1A
:100D1800A82E3C08013EBC003D080318013E003ED9
:100D2800BD003D084502031D9B2E3C0844020318E4
:100D38009E2E9F2ED92E0330B0000030B100BC018A
:100D4800BD01D92ED92ED92EB001B101C001C101E2
:100D5800D92E023030063104031DB32EB42EB82E1E
:100D6800BC01BD01D92ED92E4008013EC000410862
:100D78000318013E003EC10041084302031DC62E70
:100D8800400842020318C92ECA2ED92E3808390441
:100D9800031DCF2ED02ED92E0130B0000030B10067
:100DA800C001C101D92ED92ED92E0800512F061401
:100DB8000130B6000030B700B401B501632F8A11C5
:100DC8007F248A11831203130610632F0130B4079E
:100DD8000318B50A0030B5073C3034063504031D46
:100DE800F62EF72E162F8A11C0238A118A11BC23DA
:100DF8008A118A11B8238A118A11F8238A118A1153
:100E080095248A118A116A248A118A1139258A112E
:100E18008A110B248A118A111E248A118A11AB2483
:100E28008A11162F78308312031334063504031DF4
:100E38001E2F1F2F3D2F8A11C0238A118A11BC2310
:100E48008A118A11B8238A118A11F8238A118A1102
:100E580095248A118A116A248A118A1139258A11DE
:100E68008A110B248A118A111E248A118A11AB2433
:100E78008A110030831203133502793003193402C2
:100E8800031C472F482F632F8A117F248A1183124E
:100E980003138711632F632F632F83120313330800
:100EA800003A0319582F632F3208003A0319DB2E32
:100EB800013A0319E32E033A0319EA2E632F0800B7
:100EC8008316031386018701FF3085009F01831273
:100ED80003139F018A11B4238A118A11F0248A11FD
:100EE800752F8A111E268A118A1173268A118A1172
:100EF800C1248A11DD2F8A11C8238A11752F8A11FE
:100F0800C0238A118A11BC238A118A11F8238A11F5
:100F18008A1195248A118A116A248A118A1139251D
:100F28008A118A110B248A118A111E248A118A11A6
:100F3800AB248A11023083120313B0000030B100D1
:100F4800752F8A1165258A118A11DA268A1183126A
:100F5800031332083304031DB22FB32F752F38083B
:100F68003904031DB82FB92F752F8A11CC258A1182
:100F78008A1198258A11752F752F8A1144248A1190
:100F88008A1139258A118A1131248A118A11C823B4
:100F98008A118A11C4238A118A1112258A118A1189
:100FA80057248A1183120313B001B101752F752FCD
:100FB800752F831203133108003A0319E42F752F94
:100FC8003008003A03197F2F013A0319832F033A97
:100FD8000319A52F013A0319C12F752F752F752FE6
:100FE8008A11002883132030840042308A11D723C5
:080FF8008A1183018A11642FA4
:02400E00FAFFB7
:00000001FF
