:020000040000FA
:040000008A11F62F3C
:10064E00831203139F170800831203130715080064
:10065E008312031307130800831203138612080074
:10066E00831203138616080083120313071708005C
:10067E00831203131F150800FB3083120313C200ED
:10068E0042089F05080064008001840A04060319CD
:10069E00003404064B2B831203131E08C400C5013D
:1006AE004408C2004508C3005C2B08008A118B2346
:1006BE008A118A1178238A118A119E238A118A112E
:1006CE002B238A110800831203131F141A3083126E
:1006DE000313C300F830C200C20B732BC30B732B72
:1006EE000800831203130616063083120313C40088
:1006FE001330C300AD30C200C20B832BC30B832B50
:10070E00C40B832B000008008312031387120630DC
:10071E0083120313C4001330C300AD30C200C20BEA
:10072E00962BC30B962BC40B962B0000080083123E
:10073E00031387100B3083120313C4002630C3003B
:10074E005D30C200C20BA92BC30BA92BC40BA92B66
:10075E00000008008312031387140B308312031357
:10076E00C4002630C3005D30C200C20BBC2BC30BCD
:10077E00BC2BC40BBC2B0000080083120313061203
:10078E00063083120313C4001330C300AD30C20011
:10079E00C20BCF2BC30BCF2BC40BCF2B00000800EB
:1007AE00831203138716063083120313C40013300B
:1007BE00C300AD30C200C20BE22BC30BE22BC40B45
:1007CE00E22B000008008312031338083904031DBE
:1007DE00F12BF22BFF2B8710871206168A112B2373
:1007EE008A11013083120313B8000030B900FF2BB9
:1007FE000800831203130617293083120313C40053
:10080E009630C3007E30C200C20B0B2CC30B0B2CD8
:10081E00C40B0B2C122C8312031306130800831225
:10082E00031387170B3083120313C4002630C30043
:10083E005D30C200C20B212CC30B212CC40B212C0A
:10084E00000083120313871308008312031386110B
:10085E004D3083120313C4001930C3004F30C20051
:10086E00C20B372CC30B372CC40B372C0000831252
:10087E000313861508008312031307120630831222
:10088E000313C4001330C300AD30C200C20B4D2C95
:10089E00C30B4D2CC40B4D2C0000831203130716F3
:1008AE000800831203134208C40003300310C40D62
:1008BE00FF3E031D5D2C1F08C73944049F001A30EC
:1008CE0083120313C500F830C400C40B6C2CC50B87
:1008DE006C2C080083120313071487100711871559
:1008EE000716871207138713061486140615861526
:1008FE00061686160613B801B901C001C101BE0164
:10090E00BF01BC01BD01BA01BB01B601B701B40103
:10091E00B501B201B30108008A113B238A118A1175
:10092E0037238A118A11B1238A118A1116248A114A
:10093E008A1100248A118A1107258A118A11C4236B
:10094E008A118A11D7238A118A112C248A118A11AD
:10095E0075268A118A1133258A118A11DC258A118E
:10096E00080083120313C501C601D42C063083126E
:10097E000313C4001330C300AD30C200C20BC52C2C
:10098E00C30BC52CC40BC52C0000013083120313FE
:10099E00C5070318C60A0030C607003046023C30B1
:1009AE0003194502031CDC2CDD2CBD2CDE2C0800AB
:1009BE008A118B238A118A1178238A118A119E2318
:1009CE008A11663083120313C7007630C600C0301A
:1009DE00C500C50BF02CC60BF02CC70BF02CF72C5A
:1009EE00333083120313C700BB30C600DF30C5009F
:1009FE00C50BFF2CC60BFF2CC70BFF2C00000800ED
:100A0E0083120313C501C601282D861102308312ED
:100A1E000313C4008630C3009830C200C20B152DDC
:100A2E00C30B152DC40B152D1C2D83120313861508
:100A3E004508013EC50046080318013E003EC600AB
:100A4E00282D003046020A3003194502031C302DB2
:100A5E00312D0C2D322D0800003083120313290284
:100A6E00713003192802031C3D2D3E2D412DB2017C
:100A7E00B301412D00302902323003192802031C24
:100A8E00492D4A2D572D00302902713003192802A5
:100A9E000318522D532D572D0130B2000030B300E4
:100AAE000030290232300319280203185F2D602D01
:100ABE00652D0230B2000030B300652D0800842D84
:100ACE008A11EA238A118312031306110710992D36
:100ADE008A11EA238A118312031307100615992D22
:100AEE008A11EA238A118312031306150710992D12
:100AFE0006150714992D992D992D831203132B0882
:100B0E00003A03198B2D992D2A08003A0319772DD7
:100B1E00013A03197F2D033A0319672D013A031980
:100B2E006F2D992D08008A11DF248A11013083124E
:100B3E000313B4070318B50A0030B5078A119324BE
:100B4E008A1183120313320833040319AF2DB02D0B
:100B5E00D52D38083904031DB52DB62DD52D8A1186
:100B6E00DF248A118A1193248A1101308312031310
:100B7E00B4070318B50A0030B50732083304031959
:100B8E00C92DCA2DD52D38083904031DCF2DD02DD2
:100B9E00D52D8A11DC258A11D52DD52D0230831243
:100BAE000313B0000030B1000800102E06140130FF
:100BBE00B6000030B700B401B501222E3808390452
:100BCE000319EA2DEB2DF32D8A11EA238A118312D4
:100BDE0003130610222EF32D023034063504031DA6
:100BEE00F92DFA2D012E8A11EA238A11831203138D
:100BFE008711222E380839040319062E072E222EAD
:100C0E008A11EA238A11831203138711222E222EB0
:100C1E00222E831203133308003A0319172E222EA5
:100C2E003208003A0319DD2D013A0319E52D033A76
:100C3E000319F32D222E0800003083120313250210
:100C4E006A300319240203182D2E2E2E322E023056
:100C5E00AA000030AB00003025026A3003192402CE
:100C6E00031C3A2E3B2E482E0030250288300319E5
:100C7E0024020318432E442E482E0330AA000030BF
:100C8E00AB0000302502883003192402031C502EBD
:100C9E00512E5D2E00302502BF3003192402031899
:100CAE00592E5A2E5D2EAA01AB015D2E0030250263
:100CBE00BF3003192402031C652E662E742E0130DC
:100CCE00250200300319240203186E2E6F2E742E87
:100CDE000130AA000030AB00742E080083120313FB
:100CEE00C801C901BD2E8A116A238A11831203130A
:100CFE004908C3004808C2008A1158248A11831279
:100D0E0003131F198B2E8C2E9C2E8A113F238A11B2
:100D1E009C2E9C2E1A3083120313C700F830C60087
:100D2E00C60B972EC70B972E9C2E831203131F19DB
:100D3E00A12EA22E912EA32E8A1152238A11831236
:100D4E0003134808C6004607203E8400420883135A
:100D5E008000840A430880000130C8070318C90ABE
:100D6E000030C9078A1143238A11BD2E0030831229
:100D7E0003134902053003194802031CC72EC82E5F
:100D8E007A2EC92E0800043083120313C2000030DD
:100D9E00C3002D30C4000030C50000302702713072
:100DAE0003192602031CDC2EDD2E042F0230300622
:100DBE003104031DE32EE42EFF2E3C08013EBC0041
:100DCE003D080318013E003EBD003D084502031DCF
:100DDE00F22E3C0844020318F52EF62E302F033067
:100DEE00B0000030B100BC01BD01302F302F302FCC
:100DFE00B001B101C001C101302F02303006310403
:100E0E00031D0A2F0B2F0F2FBC01BD01302F302FCA
:100E1E004008013EC00041080318013E003EC100DB
:100E2E0041084302031D1D2F400842020318202FC4
:100E3E00212F302F38083904031D262F272F302F4E
:100E4E000130B0000030B100C001C101302F302F91
:100E5E00302F08008316031386018701FF308500AB
:100E6E009F01831203139F018A1127238A118A116E
:100E7E0071248A11422F8A1175268A118A11CA2667
:100E8E008A118A1142248A11DD2F8A1133238A1185
:100E9E00422F8A113B238A118A1137238A118A1114
:100EAE00B1238A118A1116248A118A1100248A11FB
:100EBE008A1107258A118A11C4238A118A11D72310
:100ECE008A118A112C248A118A1175268A118A1187
:100EDE0033258A118A11DC258A11831203133208F5
:100EEE00330403197B2F7C2F862F38083904031DFA
:100EFE00812F822F862F8A119A258A11862F0230F2
:100F0E0083120313B0000030B100422F8A11332533
:100F1E008A1183120313320333040319972F982F68
:100F2E00A02F023032063304031D9E2F9F2FA82FB1
:100F3E00A02F0130B8000030B9008A115D238A114C
:100F4E00A82F8A11DC258A11831203133208330469
:100F5E00031DB22FB32F422F38083904031DB82FAB
:100F6E00B92F422F8A1123268A118A1166258A11DA
:100F7E00422F422F8A118B238A118A1107258A113B
:100F8E008A1178238A118A1133238A118A112F2309
:100F9E008A118A11B8248A118A119E238A1183120A
:100FAE000313B001B101422F422F422F83120313BC
:100FBE003108003A0319E42F422F3008003A031982
:100FCE004C2F013A0319502F033A03198D2F013A72
:100FDE000319C12F422F422F422F8A11002883134B
:100FEE002030840042308A114A238A1183018A11EB
:020FFE00312F91
:02400E00FAFFB7
:00000001FF
