:020000040000FA
:040000008A11F62F3C
:1006B400831203139F1708008312031307150800FE
:1006C400831203130713080083120313861208000E
:1006D40083120313861608008312031307170800F6
:1006E400831203131F150800FB30FF007F088312D9
:1006F40003139F05080064008001840A040603199B
:10070400003404067E2B831203131E08C400C501A3
:100714004408C2004508C30008008A11BD238A1199
:100724008A11AA238A118A11D0238A118A115E237D
:100734008A110800831203131F141A30831203133F
:10074400C300F830C200C20BA52BC30BA52B0800B5
:10075400831203130616063083120313C4001330E6
:10076400C300AD30C200C20BB52BC30BB52BC40BF9
:10077400B52B00000800831203138712063083127E
:100784000313C4001330C300AD30C200C20BC82B26
:10079400C30BC82BC40BC82B00000800831203131F
:1007A40087100B3083120313C4002630C3005D305E
:1007B400C200C20BDB2BC30BDB2BC40BDB2B0000F7
:1007C40008008312031387140B3083120313C4002D
:1007D4002630C3005D30C200C20BEE2BC30BEE2BE0
:1007E400C40BEE2B0000080083120313061206301C
:1007F40083120313C4001330C300AD30C200C20B14
:10080400012CC30B012CC40B012C00000800831223
:1008140003138716063083120313C4001330C30076
:10082400AD30C200C20B142CC30B142CC40B142CFB
:10083400000008008312031338083904031D232C15
:10084400242C302C8710871206168A115E238A11F5
:10085400013083120313B8000030B900080083127A
:1008640003130617293083120313C4009630C30000
:100874007E30C200C20B3C2CC30B3C2CC40B3C2C62
:10088400432C8312031306130800831203138717E0
:100894000B3083120313C4002630C3005D30C20042
:1008A400C20B522CC30B522CC40B522C00008312CB
:1008B4000313871308008312031386114D30831228
:1008C4000313C4001930C3004F30C200C20B682C9C
:1008D400C30B682CC40B682C000083120313861509
:1008E4000800831203130712063083120313C40093
:1008F4001330C300AD30C200C20B7E2CC30B7E2C60
:10090400C40B7E2C00008312031307160800831205
:1009140003134208C40003300310C40DFF3E031D3B
:100924008E2C1F08C73944049F001A308312031306
:10093400C500F830C400C40B9D2CC50B9D2C0800C9
:1009440083120313071487100711871507168712DC
:1009540007138713061486140615861506168616BD
:100964000613B801B901C001C101BE01BF01BC0138
:10097400BD01BA01BB01B601B701B401B501B201B1
:10098400B30108008A116E238A118A116A238A111D
:100994008A11E3238A118A1147248A118A11312486
:1009A4008A118A1137258A118A11F6238A118A112C
:1009B40009248A118A115D248A118A1191268A11C7
:1009C4008A1192258A118A11C3258A11080083127B
:1009D4000313C501C601052D063083120313C40099
:1009E4001330C300AD30C200C20BF62CC30BF62C7F
:1009F400C40BF62C0000013083120313C50703183F
:100A0400C60A0030C607003046023C3003194502CE
:100A1400031C0D2D0E2DEE2C08008A11BD238A1106
:100A24008A11AA238A118A11D0238A11663083126B
:100A34000313C7007630C600C030C500C50B202D97
:100A4400C60B202DC70B202D272D33308312031303
:100A5400C700BB30C600DF30C500C50B2F2DC60B49
:100A64002F2DC70B2F2D0000080083120313C5017F
:100A7400C601572D8611023083120313C400863039
:100A8400C3009830C200C20B452DC30B452DC40BC7
:100A9400452D4C2D8312031386154508013EC500D0
:100AA40046080318013E003EC600003046020A30E4
:100AB40003194502031C5F2D602D3C2D08007C2D7D
:100AC4008A111C248A118312031306110710912D15
:100AD4008A111C248A118312031307100615912D01
:100AE4008A111C248A11831203130615682D061516
:100AF4000714912D831203132B08003A0319832D35
:100B0400912D2A08003A0319722D013A0319792DFF
:100B1400033A0319622D013A03196A2D912D080035
:100B24000030831203132902713003192802031CB5
:100B34009C2D9D2D9F2DB201B3010030290232302E
:100B440003192802031CA72DA82DB52D0030290256
:100B54007130031928020318B02DB12DB52D0130C1
:100B6400B2000030B30000302902323003192802E9
:100B74000318BD2DBE2DC22D0230B2000030B300CB
:100B84000800EE2D06140130B6000030B700B401A1
:100B9400B501002E380839040319D12DD22DD92DD1
:100BA4008A111C248A11831203130610002E0230AA
:100BB40034063504031DDF2DE02DE72D8A111C2496
:100BC4008A11831203138711002E3808390403197C
:100BD400EC2DED2D002EE02D831203133308003A83
:100BE4000319F52D002E3208003A0319C42D013AD9
:100BF4000319CC2D033A0319D92D002E08008A11AC
:100C04000F258A11013083120313B4070318B50AA0
:100C14000030B5078A11C4248A11831203133208E1
:100C240033040319162E172E3A2E38083904031DDF
:100C34001C2E1D2E3A2E8A110F258A118A11C424C6
:100C44008A11013083120313B4070318B50A003064
:100C5400B507320833040319302E312E3A2E3808E2
:100C64003904031D362E372E3A2E8A11C3258A11D4
:100C7400023083120313B0000030B10008000030CA
:100C84008312031325026A300319240203184B2E1E
:100C94004C2E502E0230AA000030AB00003025024A
:100CA4006A3003192402031C582E592E662E003074
:100CB40025028830031924020318612E622E662E41
:100CC4000330AA000030AB0000302502883003193D
:100CD4002402031C6E2E6F2E7A2E00302502BF30A4
:100CE400031924020318772E782E7A2EAA01AB0159
:100CF40000302502BF3003192402031C822E832EE8
:100D0400902E0130250200300319240203188B2E83
:100D14008C2E902E0130AA000030AB000800831204
:100D24000313C801C901D52E8A119C238A11831289
:100D340003134908C3004808C2008A1189248A1190
:100D4400831203131F19A72EA82EB62E8A117223FD
:100D54008A11B62E1A3083120313C700F830C60066
:100D6400C60BB22EC70BB22E831203131F19BB2E50
:100D7400BC2EAC2E8A1185238A11831203134808D2
:100D8400C6004607203E8400420883138000840A7C
:100D9400430880000130C8070318C90A0030C90796
:100DA4008A1176238A110030831203134902053015
:100DB40003194802031CDF2EE02E962E08002D3066
:100DC40083120313C4000030C500003027027130C1
:100DD40003192602031CEF2EF02E142F02303006C6
:100DE4003104031DF62EF72E0F2F3C08013EBC00E4
:100DF4003D080318013E003EBD0000303D022E3088
:100E040003193C02031C072F082F392F0330B000AD
:100E14000030B100BC01BD01392FB001B101C001E6
:100E2400C101392F023030063104031D1A2F1B2F44
:100E34001C2F0C2F4008013EC00041080318013E3E
:100E4400003EC10000304102053003194002031C7A
:100E54002C2F2D2F392F38083904031D322F332F0F
:100E6400392F0130B0000030B100C001C1010800C9
:100E74008316031386018701FF3085009F018312C7
:100E840003139F018A115A238A118A11A2248A11F9
:100E94008A1191268A118A11E1268A118A117324F2
:100EA4008A11DF2F8A1166238A114A2F8A116E2331
:100EB4008A118A116A238A118A11E3238A118A11F9
:100EC40047248A118A1131248A118A1137258A11FB
:100ED4008A11F6238A118A1109248A118A115D2440
:100EE4008A118A1191268A118A1192258A118A11EE
:100EF400C3258A1183120313320833040319832F81
:100F0400842F8D2F38083904031D892F8A2F8D2FA4
:100F14008A1101268A11023083120313B0000030B3
:100F2400B1004A2F8A1192258A11831203133203C6
:100F3400330403199E2F9F2FA62F02303206330449
:100F4400031DA52FA62FAD2F0130B8000030B90026
:100F54008A118F238A118A11C3258A1183120313DC
:100F640032083304031DB72FB82F4A2F3808390429
:100F7400031DBD2FBE2F4A2F8A1141268A118A11C3
:100F840061258A114A2F8A11BD238A118A113725B6
:100F94008A118A11AA238A118A1166238A118A1155
:100FA40062238A118A11E9248A118A11D0238A11B1
:100FB40083120313B001B1014A2F831203133108C2
:100FC400003A0319E62F4A2F3008003A0319542F28
:100FD400013A0319582F033A0319942F013A0319BC
:100FE400C52F4A2F8A1100288313203084004230F1
:0C0FF4008A117D238A1183018A113A2F93
:02400E00FA3F77
:00000001FF
